{
  "contractName": "LockedTokenVault",
  "abi": [
    {
      "inputs": [
        {
          "internalType": "contract IBEP20",
          "name": "_token",
          "type": "address"
        },
        {
          "internalType": "uint256",
          "name": "_startReleaseBlockNum",
          "type": "uint256"
        },
        {
          "internalType": "uint256",
          "name": "_releaseBlocks",
          "type": "uint256"
        }
      ],
      "stateMutability": "nonpayable",
      "type": "constructor"
    },
    {
      "anonymous": false,
      "inputs": [
        {
          "indexed": true,
          "internalType": "address",
          "name": "holder",
          "type": "address"
        },
        {
          "indexed": false,
          "internalType": "uint256",
          "name": "origin",
          "type": "uint256"
        },
        {
          "indexed": false,
          "internalType": "uint256",
          "name": "claimed",
          "type": "uint256"
        },
        {
          "indexed": false,
          "internalType": "uint256",
          "name": "amount",
          "type": "uint256"
        }
      ],
      "name": "Claim",
      "type": "event"
    },
    {
      "anonymous": false,
      "inputs": [
        {
          "indexed": true,
          "internalType": "address",
          "name": "holder",
          "type": "address"
        },
        {
          "indexed": false,
          "internalType": "uint256",
          "name": "origin",
          "type": "uint256"
        },
        {
          "indexed": false,
          "internalType": "uint256",
          "name": "claimed",
          "type": "uint256"
        },
        {
          "indexed": false,
          "internalType": "uint256",
          "name": "amount",
          "type": "uint256"
        }
      ],
      "name": "LockToken",
      "type": "event"
    },
    {
      "anonymous": false,
      "inputs": [
        {
          "indexed": true,
          "internalType": "address",
          "name": "previousOwner",
          "type": "address"
        },
        {
          "indexed": true,
          "internalType": "address",
          "name": "newOwner",
          "type": "address"
        }
      ],
      "name": "OwnershipTransferred",
      "type": "event"
    },
    {
      "anonymous": false,
      "inputs": [
        {
          "indexed": true,
          "internalType": "address",
          "name": "from",
          "type": "address"
        },
        {
          "indexed": true,
          "internalType": "address",
          "name": "to",
          "type": "address"
        },
        {
          "indexed": false,
          "internalType": "uint256",
          "name": "origin",
          "type": "uint256"
        },
        {
          "indexed": false,
          "internalType": "uint256",
          "name": "claimed",
          "type": "uint256"
        }
      ],
      "name": "TransferLockedToken",
      "type": "event"
    },
    {
      "inputs": [],
      "name": "masterChef",
      "outputs": [
        {
          "internalType": "address",
          "name": "",
          "type": "address"
        }
      ],
      "stateMutability": "view",
      "type": "function"
    },
    {
      "inputs": [],
      "name": "owner",
      "outputs": [
        {
          "internalType": "address",
          "name": "",
          "type": "address"
        }
      ],
      "stateMutability": "view",
      "type": "function"
    },
    {
      "inputs": [],
      "name": "releaseBlocks",
      "outputs": [
        {
          "internalType": "uint256",
          "name": "",
          "type": "uint256"
        }
      ],
      "stateMutability": "view",
      "type": "function"
    },
    {
      "inputs": [],
      "name": "renounceOwnership",
      "outputs": [],
      "stateMutability": "nonpayable",
      "type": "function"
    },
    {
      "inputs": [],
      "name": "startReleaseBlockNum",
      "outputs": [
        {
          "internalType": "uint256",
          "name": "",
          "type": "uint256"
        }
      ],
      "stateMutability": "view",
      "type": "function"
    },
    {
      "inputs": [],
      "name": "token",
      "outputs": [
        {
          "internalType": "contract IBEP20",
          "name": "",
          "type": "address"
        }
      ],
      "stateMutability": "view",
      "type": "function"
    },
    {
      "inputs": [
        {
          "internalType": "address",
          "name": "newOwner",
          "type": "address"
        }
      ],
      "name": "transferOwnership",
      "outputs": [],
      "stateMutability": "nonpayable",
      "type": "function"
    },
    {
      "inputs": [],
      "name": "unclaimedAmount",
      "outputs": [
        {
          "internalType": "uint256",
          "name": "",
          "type": "uint256"
        }
      ],
      "stateMutability": "view",
      "type": "function"
    },
    {
      "inputs": [
        {
          "internalType": "address",
          "name": "_masterChef",
          "type": "address"
        }
      ],
      "name": "setMasterChef",
      "outputs": [],
      "stateMutability": "nonpayable",
      "type": "function"
    },
    {
      "inputs": [
        {
          "internalType": "address",
          "name": "holder",
          "type": "address"
        },
        {
          "internalType": "uint256",
          "name": "amount",
          "type": "uint256"
        }
      ],
      "name": "lockToken",
      "outputs": [],
      "stateMutability": "nonpayable",
      "type": "function"
    },
    {
      "inputs": [
        {
          "internalType": "address",
          "name": "to",
          "type": "address"
        }
      ],
      "name": "transferLockedToken",
      "outputs": [],
      "stateMutability": "nonpayable",
      "type": "function"
    },
    {
      "inputs": [],
      "name": "claim",
      "outputs": [],
      "stateMutability": "nonpayable",
      "type": "function"
    },
    {
      "inputs": [],
      "name": "isReleaseStart",
      "outputs": [
        {
          "internalType": "bool",
          "name": "",
          "type": "bool"
        }
      ],
      "stateMutability": "view",
      "type": "function"
    },
    {
      "inputs": [
        {
          "internalType": "address",
          "name": "holder",
          "type": "address"
        }
      ],
      "name": "getOriginBalance",
      "outputs": [
        {
          "internalType": "uint256",
          "name": "",
          "type": "uint256"
        }
      ],
      "stateMutability": "view",
      "type": "function"
    },
    {
      "inputs": [
        {
          "internalType": "address",
          "name": "holder",
          "type": "address"
        }
      ],
      "name": "getClaimedBalance",
      "outputs": [
        {
          "internalType": "uint256",
          "name": "",
          "type": "uint256"
        }
      ],
      "stateMutability": "view",
      "type": "function"
    },
    {
      "inputs": [
        {
          "internalType": "address",
          "name": "holder",
          "type": "address"
        }
      ],
      "name": "getClaimableBalance",
      "outputs": [
        {
          "internalType": "uint256",
          "name": "",
          "type": "uint256"
        }
      ],
      "stateMutability": "view",
      "type": "function"
    },
    {
      "inputs": [
        {
          "internalType": "address",
          "name": "holder",
          "type": "address"
        }
      ],
      "name": "getRemainingBalance",
      "outputs": [
        {
          "internalType": "uint256",
          "name": "",
          "type": "uint256"
        }
      ],
      "stateMutability": "view",
      "type": "function"
    },
    {
      "inputs": [
        {
          "internalType": "uint256",
          "name": "blockNumber",
          "type": "uint256"
        }
      ],
      "name": "getRemainingRatio",
      "outputs": [
        {
          "internalType": "uint256",
          "name": "",
          "type": "uint256"
        }
      ],
      "stateMutability": "view",
      "type": "function"
    }
  ],
  "bytecode": "0x608060405234801561001057600080fd5b50604051611d1f380380611d1f8339818101604052606081101561003357600080fd5b81019080805190602001909291908051906020019092919080519060200190929190505050600061006861015d60201b60201c565b9050806000806101000a81548173ffffffffffffffffffffffffffffffffffffffff021916908373ffffffffffffffffffffffffffffffffffffffff1602179055508073ffffffffffffffffffffffffffffffffffffffff16600073ffffffffffffffffffffffffffffffffffffffff167f8be0079c531659141344cd1fd0a4f28419497f9722a3daafe3b4186f6b6457e060405160405180910390a35082600160006101000a81548173ffffffffffffffffffffffffffffffffffffffff021916908373ffffffffffffffffffffffffffffffffffffffff1602179055508160068190555080600781905550505050610165565b600033905090565b611bab806101746000396000f3fe608060405234801561001057600080fd5b50600436106101155760003560e01c8063715018a6116100a2578063cd32f08611610071578063cd32f086146103b8578063cf0e80fe146103d8578063d182849614610430578063f2fde38b14610488578063fc0c546a146104cc57610115565b8063715018a6146102f25780637db41eae146102fc5780638da5cb5b14610340578063a2d9f4dc1461037457610115565b8063575a86b2116100e9578063575a86b2146102225780636909aeee146102565780636a4de5d1146102745780636efce095146102b657806370d1d031146102d457610115565b80621bf8f61461011a57806306def8021461017257806317be3fa5146101ca5780634e71d92d14610218575b600080fd5b61015c6004803603602081101561013057600080fd5b81019080803573ffffffffffffffffffffffffffffffffffffffff169060200190929190505050610500565b6040518082815260200191505060405180910390f35b6101b46004803603602081101561018857600080fd5b81019080803573ffffffffffffffffffffffffffffffffffffffff169060200190929190505050610582565b6040518082815260200191505060405180910390f35b610216600480360360408110156101e057600080fd5b81019080803573ffffffffffffffffffffffffffffffffffffffff1690602001909291908035906020019092919050505061063b565b005b610220610931565b005b61022a610ad7565b604051808273ffffffffffffffffffffffffffffffffffffffff16815260200191505060405180910390f35b61025e610afd565b6040518082815260200191505060405180910390f35b6102a06004803603602081101561028a57600080fd5b8101908080359060200190929190505050610b03565b6040518082815260200191505060405180910390f35b6102be610b9e565b6040518082815260200191505060405180910390f35b6102dc610ba4565b6040518082815260200191505060405180910390f35b6102fa610baa565b005b61033e6004803603602081101561031257600080fd5b81019080803573ffffffffffffffffffffffffffffffffffffffff169060200190929190505050610d17565b005b610348610fc5565b604051808273ffffffffffffffffffffffffffffffffffffffff16815260200191505060405180910390f35b6103b66004803603602081101561038a57600080fd5b81019080803573ffffffffffffffffffffffffffffffffffffffff169060200190929190505050610fee565b005b6103c0611184565b60405180821515815260200191505060405180910390f35b61041a600480360360208110156103ee57600080fd5b81019080803573ffffffffffffffffffffffffffffffffffffffff169060200190929190505050611191565b6040518082815260200191505060405180910390f35b6104726004803603602081101561044657600080fd5b81019080803573ffffffffffffffffffffffffffffffffffffffff1690602001909291905050506111da565b6040518082815260200191505060405180910390f35b6104ca6004803603602081101561049e57600080fd5b81019080803573ffffffffffffffffffffffffffffffffffffffff169060200190929190505050611223565b005b6104d4611415565b604051808273ffffffffffffffffffffffffffffffffffffffff16815260200191505060405180910390f35b60008061050c42610b03565b905061057a670de0b6b3a764000061056c83600360008873ffffffffffffffffffffffffffffffffffffffff1673ffffffffffffffffffffffffffffffffffffffff1681526020019081526020016000205461143b90919063ffffffff16565b6114c190919063ffffffff16565b915050919050565b60008061058e83610500565b9050610633600460008573ffffffffffffffffffffffffffffffffffffffff1673ffffffffffffffffffffffffffffffffffffffff1681526020019081526020016000205461062583600360008873ffffffffffffffffffffffffffffffffffffffff1673ffffffffffffffffffffffffffffffffffffffff1681526020019081526020016000205461154a90919063ffffffff16565b61154a90919063ffffffff16565b915050919050565b600073ffffffffffffffffffffffffffffffffffffffff168273ffffffffffffffffffffffffffffffffffffffff1614156106de576040517f08c379a000000000000000000000000000000000000000000000000000000000815260040180806020018281038252600c8152602001807f7a65726f2061646472657373000000000000000000000000000000000000000081525060200191505060405180910390fd5b600260009054906101000a900473ffffffffffffffffffffffffffffffffffffffff1673ffffffffffffffffffffffffffffffffffffffff163373ffffffffffffffffffffffffffffffffffffffff16146107a1576040517f08c379a000000000000000000000000000000000000000000000000000000000815260040180806020018281038252600e8152602001807f6e6f74206d61737465726368656600000000000000000000000000000000000081525060200191505060405180910390fd5b6107f381600360008573ffffffffffffffffffffffffffffffffffffffff1673ffffffffffffffffffffffffffffffffffffffff168152602001908152602001600020546115cd90919063ffffffff16565b600360008473ffffffffffffffffffffffffffffffffffffffff1673ffffffffffffffffffffffffffffffffffffffff1681526020019081526020016000208190555061084b816005546115cd90919063ffffffff16565b6005819055508173ffffffffffffffffffffffffffffffffffffffff167fe24d345c42b1d6b6d4bdaf4acbd768c1dfdfb0242ff6df221c68ce443b8c2d0d600360008573ffffffffffffffffffffffffffffffffffffffff1673ffffffffffffffffffffffffffffffffffffffff16815260200190815260200160002054600460008673ffffffffffffffffffffffffffffffffffffffff1673ffffffffffffffffffffffffffffffffffffffff168152602001908152602001600020548460405180848152602001838152602001828152602001935050505060405180910390a25050565b600061093c33610582565b905061099081600460003373ffffffffffffffffffffffffffffffffffffffff1673ffffffffffffffffffffffffffffffffffffffff168152602001908152602001600020546115cd90919063ffffffff16565b600460003373ffffffffffffffffffffffffffffffffffffffff1673ffffffffffffffffffffffffffffffffffffffff168152602001908152602001600020819055506109e88160055461154a90919063ffffffff16565b6005819055506109f83382611655565b3373ffffffffffffffffffffffffffffffffffffffff167f45c072aa05b9853b5a993de7a28bc332ee01404a628cec1a23ce0f659f842ef1600360003373ffffffffffffffffffffffffffffffffffffffff1673ffffffffffffffffffffffffffffffffffffffff16815260200190815260200160002054600460003373ffffffffffffffffffffffffffffffffffffffff1673ffffffffffffffffffffffffffffffffffffffff168152602001908152602001600020548460405180848152602001838152602001828152602001935050505060405180910390a250565b600260009054906101000a900473ffffffffffffffffffffffffffffffffffffffff1681565b60065481565b6000600654821015610b1f57670de0b6b3a76400009050610b99565b6000610b366006548461154a90919063ffffffff16565b9050600754811015610b93576000610b598260075461154a90919063ffffffff16565b9050610b8a600754610b7c670de0b6b3a76400008461143b90919063ffffffff16565b6114c190919063ffffffff16565b92505050610b99565b60009150505b919050565b60055481565b60075481565b610bb26116a6565b73ffffffffffffffffffffffffffffffffffffffff16610bd0610fc5565b73ffffffffffffffffffffffffffffffffffffffff1614610c59576040517f08c379a00000000000000000000000000000000000000000000000000000000081526004018080602001828103825260208152602001807f4f776e61626c653a2063616c6c6572206973206e6f7420746865206f776e657281525060200191505060405180910390fd5b600073ffffffffffffffffffffffffffffffffffffffff1660008054906101000a900473ffffffffffffffffffffffffffffffffffffffff1673ffffffffffffffffffffffffffffffffffffffff167f8be0079c531659141344cd1fd0a4f28419497f9722a3daafe3b4186f6b6457e060405160405180910390a360008060006101000a81548173ffffffffffffffffffffffffffffffffffffffff021916908373ffffffffffffffffffffffffffffffffffffffff160217905550565b6000600360003373ffffffffffffffffffffffffffffffffffffffff1673ffffffffffffffffffffffffffffffffffffffff1681526020019081526020016000205490506000600460003373ffffffffffffffffffffffffffffffffffffffff1673ffffffffffffffffffffffffffffffffffffffff1681526020019081526020016000205490506000600360003373ffffffffffffffffffffffffffffffffffffffff1673ffffffffffffffffffffffffffffffffffffffff168152602001908152602001600020819055506000600460003373ffffffffffffffffffffffffffffffffffffffff1673ffffffffffffffffffffffffffffffffffffffff16815260200190815260200160002081905550610e7b82600360008673ffffffffffffffffffffffffffffffffffffffff1673ffffffffffffffffffffffffffffffffffffffff168152602001908152602001600020546115cd90919063ffffffff16565b600360008573ffffffffffffffffffffffffffffffffffffffff1673ffffffffffffffffffffffffffffffffffffffff16815260200190815260200160002081905550610f1081600460008673ffffffffffffffffffffffffffffffffffffffff1673ffffffffffffffffffffffffffffffffffffffff168152602001908152602001600020546115cd90919063ffffffff16565b600460008573ffffffffffffffffffffffffffffffffffffffff1673ffffffffffffffffffffffffffffffffffffffff168152602001908152602001600020819055508273ffffffffffffffffffffffffffffffffffffffff163373ffffffffffffffffffffffffffffffffffffffff167f8ff82a97675f0e72452c37c968c2c6121849f421aab8583cb6978f1e8263b3ff8484604051808381526020018281526020019250505060405180910390a3505050565b60008060009054906101000a900473ffffffffffffffffffffffffffffffffffffffff16905090565b610ff66116a6565b73ffffffffffffffffffffffffffffffffffffffff16611014610fc5565b73ffffffffffffffffffffffffffffffffffffffff161461109d576040517f08c379a00000000000000000000000000000000000000000000000000000000081526004018080602001828103825260208152602001807f4f776e61626c653a2063616c6c6572206973206e6f7420746865206f776e657281525060200191505060405180910390fd5b600073ffffffffffffffffffffffffffffffffffffffff168173ffffffffffffffffffffffffffffffffffffffff161415611140576040517f08c379a000000000000000000000000000000000000000000000000000000000815260040180806020018281038252600c8152602001807f7a65726f2061646472657373000000000000000000000000000000000000000081525060200191505060405180910390fd5b80600260006101000a81548173ffffffffffffffffffffffffffffffffffffffff021916908373ffffffffffffffffffffffffffffffffffffffff16021790555050565b6000600654431015905090565b6000600460008373ffffffffffffffffffffffffffffffffffffffff1673ffffffffffffffffffffffffffffffffffffffff168152602001908152602001600020549050919050565b6000600360008373ffffffffffffffffffffffffffffffffffffffff1673ffffffffffffffffffffffffffffffffffffffff168152602001908152602001600020549050919050565b61122b6116a6565b73ffffffffffffffffffffffffffffffffffffffff16611249610fc5565b73ffffffffffffffffffffffffffffffffffffffff16146112d2576040517f08c379a00000000000000000000000000000000000000000000000000000000081526004018080602001828103825260208152602001807f4f776e61626c653a2063616c6c6572206973206e6f7420746865206f776e657281525060200191505060405180910390fd5b600073ffffffffffffffffffffffffffffffffffffffff168173ffffffffffffffffffffffffffffffffffffffff161415611358576040517f08c379a0000000000000000000000000000000000000000000000000000000008152600401808060200182810382526026815260200180611b096026913960400191505060405180910390fd5b8073ffffffffffffffffffffffffffffffffffffffff1660008054906101000a900473ffffffffffffffffffffffffffffffffffffffff1673ffffffffffffffffffffffffffffffffffffffff167f8be0079c531659141344cd1fd0a4f28419497f9722a3daafe3b4186f6b6457e060405160405180910390a3806000806101000a81548173ffffffffffffffffffffffffffffffffffffffff021916908373ffffffffffffffffffffffffffffffffffffffff16021790555050565b600160009054906101000a900473ffffffffffffffffffffffffffffffffffffffff1681565b60008083141561144e57600090506114bb565b600082840290508284828161145f57fe5b04146114b6576040517f08c379a0000000000000000000000000000000000000000000000000000000008152600401808060200182810382526021815260200180611b556021913960400191505060405180910390fd5b809150505b92915050565b6000808211611538576040517f08c379a000000000000000000000000000000000000000000000000000000000815260040180806020018281038252601a8152602001807f536166654d6174683a206469766973696f6e206279207a65726f00000000000081525060200191505060405180910390fd5b81838161154157fe5b04905092915050565b6000828211156115c2576040517f08c379a000000000000000000000000000000000000000000000000000000000815260040180806020018281038252601e8152602001807f536166654d6174683a207375627472616374696f6e206f766572666c6f77000081525060200191505060405180910390fd5b818303905092915050565b60008082840190508381101561164b576040517f08c379a000000000000000000000000000000000000000000000000000000000815260040180806020018281038252601b8152602001807f536166654d6174683a206164646974696f6e206f766572666c6f77000000000081525060200191505060405180910390fd5b8091505092915050565b6116a28282600160009054906101000a900473ffffffffffffffffffffffffffffffffffffffff1673ffffffffffffffffffffffffffffffffffffffff166116ae9092919063ffffffff16565b5050565b600033905090565b61174b8363a9059cbb60e01b8484604051602401808373ffffffffffffffffffffffffffffffffffffffff16815260200182815260200192505050604051602081830303815290604052907bffffffffffffffffffffffffffffffffffffffffffffffffffffffff19166020820180517bffffffffffffffffffffffffffffffffffffffffffffffffffffffff8381831617835250505050611750565b505050565b60006117b2826040518060400160405280602081526020017f5361666542455032303a206c6f772d6c6576656c2063616c6c206661696c65648152508573ffffffffffffffffffffffffffffffffffffffff1661183f9092919063ffffffff16565b905060008151111561183a578080602001905160208110156117d357600080fd5b8101908080519060200190929190505050611839576040517f08c379a000000000000000000000000000000000000000000000000000000000815260040180806020018281038252602a815260200180611adf602a913960400191505060405180910390fd5b5b505050565b606061184e8484600085611857565b90509392505050565b6060824710156118b2576040517f08c379a0000000000000000000000000000000000000000000000000000000008152600401808060200182810382526026815260200180611b2f6026913960400191505060405180910390fd5b6118bb856119ff565b61192d576040517f08c379a000000000000000000000000000000000000000000000000000000000815260040180806020018281038252601d8152602001807f416464726573733a2063616c6c20746f206e6f6e2d636f6e747261637400000081525060200191505060405180910390fd5b6000808673ffffffffffffffffffffffffffffffffffffffff1685876040518082805190602001908083835b6020831061197c5780518252602082019150602081019050602083039250611959565b6001836020036101000a03801982511681845116808217855250505050505090500191505060006040518083038185875af1925050503d80600081146119de576040519150601f19603f3d011682016040523d82523d6000602084013e6119e3565b606091505b50915091506119f3828286611a12565b92505050949350505050565b600080823b905060008111915050919050565b60608315611a2257829050611ad7565b600083511115611a355782518084602001fd5b816040517f08c379a00000000000000000000000000000000000000000000000000000000081526004018080602001828103825283818151815260200191508051906020019080838360005b83811015611a9c578082015181840152602081019050611a81565b50505050905090810190601f168015611ac95780820380516001836020036101000a031916815260200191505b509250505060405180910390fd5b939250505056fe5361666542455032303a204245503230206f7065726174696f6e20646964206e6f7420737563636565644f776e61626c653a206e6577206f776e657220697320746865207a65726f2061646472657373416464726573733a20696e73756666696369656e742062616c616e636520666f722063616c6c536166654d6174683a206d756c7469706c69636174696f6e206f766572666c6f77a2646970667358221220c5acb6fb342274b438a0612c7bac4b5943e5c6ab43ac8f0c197997518f6938ae64736f6c63430007060033",
  "immutableReferences": {},
  "source": "// SPDX-License-Identifier: MIT\r\n\r\npragma solidity ^0.7.6;\r\n\r\nimport \"@openzeppelin/contracts/math/SafeMath.sol\";\r\nimport \"@openzeppelin/contracts/access/Ownable.sol\";\r\nimport {IBEP20, SafeBEP20} from \"./libs/SafeBEP20.sol\";\r\n\r\ncontract LockedTokenVault is Ownable {\r\n    using SafeMath for uint256;\r\n    using SafeBEP20 for IBEP20;\r\n\r\n    IBEP20 public token;\r\n    address public masterChef;\r\n\r\n    mapping(address => uint256) internal originBalances;\r\n    mapping(address => uint256) internal claimedBalances;\r\n\r\n    uint256 public unclaimedAmount;\r\n    uint256 public startReleaseBlockNum;\r\n    uint256 public releaseBlocks;\r\n\r\n    constructor(\r\n        IBEP20 _token,\r\n        uint256 _startReleaseBlockNum,\r\n        uint256 _releaseBlocks\r\n    ) public {\r\n        token = _token;\r\n        startReleaseBlockNum = _startReleaseBlockNum;\r\n        releaseBlocks = _releaseBlocks;\r\n    }\r\n\r\n\r\n    event LockToken(address indexed holder, uint256 origin, uint256 claimed, uint256 amount);\r\n    event TransferLockedToken(address indexed from, address indexed to, uint256 origin, uint256 claimed);\r\n    event Claim(address indexed holder, uint256 origin, uint256 claimed, uint256 amount);\r\n\r\n    function setMasterChef(address _masterChef) public onlyOwner {\r\n        require(_masterChef != address(0), \"zero address\");\r\n        masterChef = _masterChef;\r\n    }\r\n\r\n    function lockToken(address holder, uint256 amount) external {\r\n        require(holder != address(0), \"zero address\");\r\n        require(msg.sender == masterChef, \"not masterchef\");\r\n        // for saving gas, no event for grant\r\n        originBalances[holder] = originBalances[holder].add(amount);\r\n        unclaimedAmount = unclaimedAmount.add(amount);\r\n        emit LockToken(holder, originBalances[holder], claimedBalances[holder], amount);\r\n    }\r\n\r\n    function transferLockedToken(address to) external {\r\n        uint256 originBalance = originBalances[msg.sender];\r\n        uint256 claimedBalance = claimedBalances[msg.sender];\r\n\r\n        originBalances[msg.sender] = 0;\r\n        claimedBalances[msg.sender] = 0;\r\n\r\n        originBalances[to] = originBalances[to].add(originBalance);\r\n        claimedBalances[to] = claimedBalances[to].add(claimedBalance);\r\n\r\n        \r\n        emit TransferLockedToken(msg.sender, to, originBalance, claimedBalance);\r\n    }\r\n\r\n    function claim() external {\r\n        uint256 claimableToken = getClaimableBalance(msg.sender);\r\n        claimedBalances[msg.sender] = claimedBalances[msg.sender].add(claimableToken);\r\n        unclaimedAmount = unclaimedAmount.sub(claimableToken);\r\n        _tokenTransferOut(msg.sender, claimableToken);\r\n        emit Claim(\r\n            msg.sender,\r\n            originBalances[msg.sender],\r\n            claimedBalances[msg.sender],\r\n            claimableToken\r\n        );\r\n    }\r\n\r\n    function isReleaseStart() external view returns (bool) {\r\n        return block.number >= startReleaseBlockNum;\r\n    }\r\n\r\n    function getOriginBalance(address holder) external view returns (uint256) {\r\n        return originBalances[holder];\r\n    }\r\n\r\n    function getClaimedBalance(address holder) external view returns (uint256) {\r\n        return claimedBalances[holder];\r\n    }\r\n\r\n    function getClaimableBalance(address holder) public view returns (uint256) {\r\n        uint256 remainingToken = getRemainingBalance(holder);\r\n        return originBalances[holder].sub(remainingToken).sub(claimedBalances[holder]);\r\n    }\r\n    \r\n    function getRemainingBalance(address holder) public view returns (uint256) {\r\n        uint256 remainingRatio = getRemainingRatio(block.timestamp);\r\n        return originBalances[holder].mul(remainingRatio).div(1e18);\r\n    }\r\n\r\n    function getRemainingRatio(uint256 blockNumber) public view returns (uint256) {\r\n        if (blockNumber < startReleaseBlockNum) {\r\n            return 1e18;\r\n        }\r\n        uint256 bocks = blockNumber.sub(startReleaseBlockNum);\r\n        if (bocks < releaseBlocks) {\r\n            uint256 remainingBlocks = releaseBlocks.sub(bocks);\r\n            return remainingBlocks.mul(1e18).div(releaseBlocks);\r\n        } else {\r\n            return 0;\r\n        }\r\n    }\r\n\r\n    function _tokenTransferOut(address to, uint256 amount) internal {\r\n        IBEP20(token).safeTransfer(to, amount);\r\n    }\r\n}",
  "sourcePath": "E:\\remix-data\\Mars\\contracts\\LockedTokenVault.sol",
  "compiler": {
    "name": "solc",
    "version": "0.7.6+commit.7338295f.Emscripten.clang"
  },
  "schemaVersion": "3.3.4",
  "updatedAt": "2021-03-13T06:16:04.377Z",
  "devdoc": {
    "kind": "dev",
    "methods": {
      "owner()": {
        "details": "Returns the address of the current owner."
      },
      "renounceOwnership()": {
        "details": "Leaves the contract without owner. It will not be possible to call `onlyOwner` functions anymore. Can only be called by the current owner. NOTE: Renouncing ownership will leave the contract without an owner, thereby removing any functionality that is only available to the owner."
      },
      "transferOwnership(address)": {
        "details": "Transfers ownership of the contract to a new account (`newOwner`). Can only be called by the current owner."
      }
    },
    "version": 1
  },
  "userdoc": {
    "kind": "user",
    "methods": {},
    "version": 1
  }
}