{
  "contractName": "MasterChef",
  "abi": [
    {
      "inputs": [
        {
          "internalType": "contract MarsToken",
          "name": "_mars",
          "type": "address"
        },
        {
          "internalType": "contract LockedTokenVault",
          "name": "_lockedTokenVault",
          "type": "address"
        },
        {
          "internalType": "address",
          "name": "_devAddress",
          "type": "address"
        },
        {
          "internalType": "address",
          "name": "_pjtrAddress",
          "type": "address"
        },
        {
          "internalType": "uint256",
          "name": "_marsPerBlock",
          "type": "uint256"
        },
        {
          "internalType": "uint256",
          "name": "_startBlock",
          "type": "uint256"
        },
        {
          "internalType": "uint256",
          "name": "_endBlock",
          "type": "uint256"
        }
      ],
      "stateMutability": "nonpayable",
      "type": "constructor"
    },
    {
      "anonymous": false,
      "inputs": [
        {
          "indexed": true,
          "internalType": "address",
          "name": "user",
          "type": "address"
        },
        {
          "indexed": true,
          "internalType": "uint256",
          "name": "pid",
          "type": "uint256"
        },
        {
          "indexed": false,
          "internalType": "uint256",
          "name": "amount",
          "type": "uint256"
        }
      ],
      "name": "Deposit",
      "type": "event"
    },
    {
      "anonymous": false,
      "inputs": [
        {
          "indexed": true,
          "internalType": "address",
          "name": "user",
          "type": "address"
        },
        {
          "indexed": true,
          "internalType": "uint256",
          "name": "pid",
          "type": "uint256"
        },
        {
          "indexed": false,
          "internalType": "uint256",
          "name": "amount",
          "type": "uint256"
        }
      ],
      "name": "EmergencyWithdraw",
      "type": "event"
    },
    {
      "anonymous": false,
      "inputs": [
        {
          "indexed": true,
          "internalType": "address",
          "name": "previousOwner",
          "type": "address"
        },
        {
          "indexed": true,
          "internalType": "address",
          "name": "newOwner",
          "type": "address"
        }
      ],
      "name": "OwnershipTransferred",
      "type": "event"
    },
    {
      "anonymous": false,
      "inputs": [
        {
          "indexed": true,
          "internalType": "address",
          "name": "user",
          "type": "address"
        },
        {
          "indexed": true,
          "internalType": "address",
          "name": "newAddress",
          "type": "address"
        }
      ],
      "name": "SetDevAddress",
      "type": "event"
    },
    {
      "anonymous": false,
      "inputs": [
        {
          "indexed": true,
          "internalType": "address",
          "name": "user",
          "type": "address"
        },
        {
          "indexed": true,
          "internalType": "address",
          "name": "newAddress",
          "type": "address"
        }
      ],
      "name": "SetPjtrAddress",
      "type": "event"
    },
    {
      "anonymous": false,
      "inputs": [
        {
          "indexed": true,
          "internalType": "address",
          "name": "user",
          "type": "address"
        },
        {
          "indexed": false,
          "internalType": "uint256",
          "name": "goosePerBlock",
          "type": "uint256"
        }
      ],
      "name": "UpdateEmissionRate",
      "type": "event"
    },
    {
      "anonymous": false,
      "inputs": [
        {
          "indexed": true,
          "internalType": "address",
          "name": "user",
          "type": "address"
        },
        {
          "indexed": true,
          "internalType": "uint256",
          "name": "pid",
          "type": "uint256"
        },
        {
          "indexed": false,
          "internalType": "uint256",
          "name": "amount",
          "type": "uint256"
        }
      ],
      "name": "Withdraw",
      "type": "event"
    },
    {
      "inputs": [],
      "name": "BONUS_MULTIPLIER",
      "outputs": [
        {
          "internalType": "uint256",
          "name": "",
          "type": "uint256"
        }
      ],
      "stateMutability": "view",
      "type": "function"
    },
    {
      "inputs": [],
      "name": "devAddress",
      "outputs": [
        {
          "internalType": "address",
          "name": "",
          "type": "address"
        }
      ],
      "stateMutability": "view",
      "type": "function"
    },
    {
      "inputs": [],
      "name": "endBlock",
      "outputs": [
        {
          "internalType": "uint256",
          "name": "",
          "type": "uint256"
        }
      ],
      "stateMutability": "view",
      "type": "function"
    },
    {
      "inputs": [],
      "name": "lockedTokenVault",
      "outputs": [
        {
          "internalType": "contract LockedTokenVault",
          "name": "",
          "type": "address"
        }
      ],
      "stateMutability": "view",
      "type": "function"
    },
    {
      "inputs": [],
      "name": "mars",
      "outputs": [
        {
          "internalType": "contract MarsToken",
          "name": "",
          "type": "address"
        }
      ],
      "stateMutability": "view",
      "type": "function"
    },
    {
      "inputs": [],
      "name": "marsPerBlock",
      "outputs": [
        {
          "internalType": "uint256",
          "name": "",
          "type": "uint256"
        }
      ],
      "stateMutability": "view",
      "type": "function"
    },
    {
      "inputs": [],
      "name": "owner",
      "outputs": [
        {
          "internalType": "address",
          "name": "",
          "type": "address"
        }
      ],
      "stateMutability": "view",
      "type": "function"
    },
    {
      "inputs": [],
      "name": "pjtrAddress",
      "outputs": [
        {
          "internalType": "address",
          "name": "",
          "type": "address"
        }
      ],
      "stateMutability": "view",
      "type": "function"
    },
    {
      "inputs": [
        {
          "internalType": "contract IBEP20",
          "name": "",
          "type": "address"
        }
      ],
      "name": "poolExistence",
      "outputs": [
        {
          "internalType": "bool",
          "name": "",
          "type": "bool"
        }
      ],
      "stateMutability": "view",
      "type": "function"
    },
    {
      "inputs": [
        {
          "internalType": "uint256",
          "name": "",
          "type": "uint256"
        }
      ],
      "name": "poolInfo",
      "outputs": [
        {
          "internalType": "contract IBEP20",
          "name": "lpToken",
          "type": "address"
        },
        {
          "internalType": "uint256",
          "name": "allocPoint",
          "type": "uint256"
        },
        {
          "internalType": "uint256",
          "name": "lastRewardBlock",
          "type": "uint256"
        },
        {
          "internalType": "uint256",
          "name": "accMarsPerShare",
          "type": "uint256"
        }
      ],
      "stateMutability": "view",
      "type": "function"
    },
    {
      "inputs": [],
      "name": "renounceOwnership",
      "outputs": [],
      "stateMutability": "nonpayable",
      "type": "function"
    },
    {
      "inputs": [],
      "name": "startBlock",
      "outputs": [
        {
          "internalType": "uint256",
          "name": "",
          "type": "uint256"
        }
      ],
      "stateMutability": "view",
      "type": "function"
    },
    {
      "inputs": [],
      "name": "totalAllocPoint",
      "outputs": [
        {
          "internalType": "uint256",
          "name": "",
          "type": "uint256"
        }
      ],
      "stateMutability": "view",
      "type": "function"
    },
    {
      "inputs": [
        {
          "internalType": "address",
          "name": "newOwner",
          "type": "address"
        }
      ],
      "name": "transferOwnership",
      "outputs": [],
      "stateMutability": "nonpayable",
      "type": "function"
    },
    {
      "inputs": [
        {
          "internalType": "uint256",
          "name": "",
          "type": "uint256"
        },
        {
          "internalType": "address",
          "name": "",
          "type": "address"
        }
      ],
      "name": "userInfo",
      "outputs": [
        {
          "internalType": "uint256",
          "name": "amount",
          "type": "uint256"
        },
        {
          "internalType": "uint256",
          "name": "rewardDebt",
          "type": "uint256"
        }
      ],
      "stateMutability": "view",
      "type": "function"
    },
    {
      "inputs": [],
      "name": "poolLength",
      "outputs": [
        {
          "internalType": "uint256",
          "name": "",
          "type": "uint256"
        }
      ],
      "stateMutability": "view",
      "type": "function"
    },
    {
      "inputs": [
        {
          "internalType": "uint256",
          "name": "_allocPoint",
          "type": "uint256"
        },
        {
          "internalType": "contract IBEP20",
          "name": "_lpToken",
          "type": "address"
        },
        {
          "internalType": "bool",
          "name": "_withUpdate",
          "type": "bool"
        }
      ],
      "name": "addPool",
      "outputs": [],
      "stateMutability": "nonpayable",
      "type": "function"
    },
    {
      "inputs": [
        {
          "internalType": "uint256",
          "name": "_pid",
          "type": "uint256"
        },
        {
          "internalType": "uint256",
          "name": "_allocPoint",
          "type": "uint256"
        },
        {
          "internalType": "bool",
          "name": "_withUpdate",
          "type": "bool"
        }
      ],
      "name": "setPool",
      "outputs": [],
      "stateMutability": "nonpayable",
      "type": "function"
    },
    {
      "inputs": [
        {
          "internalType": "uint256",
          "name": "_from",
          "type": "uint256"
        },
        {
          "internalType": "uint256",
          "name": "_to",
          "type": "uint256"
        }
      ],
      "name": "getMultiplier",
      "outputs": [
        {
          "internalType": "uint256",
          "name": "",
          "type": "uint256"
        }
      ],
      "stateMutability": "pure",
      "type": "function"
    },
    {
      "inputs": [
        {
          "internalType": "uint256",
          "name": "_pid",
          "type": "uint256"
        },
        {
          "internalType": "address",
          "name": "_user",
          "type": "address"
        }
      ],
      "name": "pendingMars",
      "outputs": [
        {
          "internalType": "uint256",
          "name": "",
          "type": "uint256"
        }
      ],
      "stateMutability": "view",
      "type": "function"
    },
    {
      "inputs": [],
      "name": "massUpdatePools",
      "outputs": [],
      "stateMutability": "nonpayable",
      "type": "function"
    },
    {
      "inputs": [
        {
          "internalType": "uint256",
          "name": "_pid",
          "type": "uint256"
        }
      ],
      "name": "updatePool",
      "outputs": [
        {
          "internalType": "bool",
          "name": "",
          "type": "bool"
        }
      ],
      "stateMutability": "nonpayable",
      "type": "function"
    },
    {
      "inputs": [
        {
          "internalType": "uint256",
          "name": "_pid",
          "type": "uint256"
        },
        {
          "internalType": "uint256",
          "name": "_amount",
          "type": "uint256"
        }
      ],
      "name": "deposit",
      "outputs": [],
      "stateMutability": "nonpayable",
      "type": "function"
    },
    {
      "inputs": [
        {
          "internalType": "uint256",
          "name": "_pid",
          "type": "uint256"
        },
        {
          "internalType": "uint256",
          "name": "_amount",
          "type": "uint256"
        }
      ],
      "name": "withdraw",
      "outputs": [],
      "stateMutability": "nonpayable",
      "type": "function"
    },
    {
      "inputs": [
        {
          "internalType": "uint256",
          "name": "_pid",
          "type": "uint256"
        }
      ],
      "name": "emergencyWithdraw",
      "outputs": [],
      "stateMutability": "nonpayable",
      "type": "function"
    },
    {
      "inputs": [
        {
          "internalType": "address",
          "name": "_devAddress",
          "type": "address"
        }
      ],
      "name": "setDevAddress",
      "outputs": [],
      "stateMutability": "nonpayable",
      "type": "function"
    },
    {
      "inputs": [
        {
          "internalType": "address",
          "name": "_pjtrAddress",
          "type": "address"
        }
      ],
      "name": "setPjtrAddress",
      "outputs": [],
      "stateMutability": "nonpayable",
      "type": "function"
    },
    {
      "inputs": [
        {
          "internalType": "uint256",
          "name": "_marsPerBlock",
          "type": "uint256"
        }
      ],
      "name": "updateEmissionRate",
      "outputs": [],
      "stateMutability": "nonpayable",
      "type": "function"
    }
  ],
  "bytecode": "0x608060405260006009553480156200001657600080fd5b506040516200339238038062003392833981810160405260e08110156200003c57600080fd5b810190808051906020019092919080519060200190929190805190602001909291908051906020019092919080519060200190929190805190602001909291908051906020019092919050505060006200009b6200026660201b60201c565b9050806000806101000a81548173ffffffffffffffffffffffffffffffffffffffff021916908373ffffffffffffffffffffffffffffffffffffffff1602179055508073ffffffffffffffffffffffffffffffffffffffff16600073ffffffffffffffffffffffffffffffffffffffff167f8be0079c531659141344cd1fd0a4f28419497f9722a3daafe3b4186f6b6457e060405160405180910390a3506001808190555086600260006101000a81548173ffffffffffffffffffffffffffffffffffffffff021916908373ffffffffffffffffffffffffffffffffffffffff16021790555085600360006101000a81548173ffffffffffffffffffffffffffffffffffffffff021916908373ffffffffffffffffffffffffffffffffffffffff16021790555084600660006101000a81548173ffffffffffffffffffffffffffffffffffffffff021916908373ffffffffffffffffffffffffffffffffffffffff16021790555083600760006101000a81548173ffffffffffffffffffffffffffffffffffffffff021916908373ffffffffffffffffffffffffffffffffffffffff1602179055508260088190555081600a8190555080600b81905550505050505050506200026e565b600033905090565b613114806200027e6000396000f3fe608060405234801561001057600080fd5b50600436106101c45760003560e01c8063630b5ba1116100f9578063aa6637dd11610097578063d0d41fe111610071578063d0d41fe1146106e9578063d50402e71461072d578063e2bbb15814610771578063f2fde38b146107a9576101c4565b8063aa6637dd146105f9578063cbd258b51461062d578063ce56fa0514610687576101c4565b80638aa28550116100d35780638aa28550146104f25780638da5cb5b146105105780638dbb1e3a1461054457806393f1a40b14610590576101c4565b8063630b5ba114610484578063715018a61461048e5780637abceffd14610498576101c4565b80631b1617001161016657806346ca6bea1161014057806346ca6bea146103b057806348cd4cb1146103f457806351eb05a6146104125780635312ea8e14610456576101c4565b80631b161700146103105780633ad10ef614610344578063441a3e7014610378576101c4565b80630ba84cd2116101a25780630ba84cd21461023957806310ace70b146102675780631526fe271461028557806317caf6f1146102f2576101c4565b806305d7c702146101c9578063081e3eda146101fd578063083c63231461021b575b600080fd5b6101d16107ed565b604051808273ffffffffffffffffffffffffffffffffffffffff16815260200191505060405180910390f35b610205610813565b6040518082815260200191505060405180910390f35b610223610820565b6040518082815260200191505060405180910390f35b6102656004803603602081101561024f57600080fd5b8101908080359060200190929190505050610826565b005b61026f610935565b6040518082815260200191505060405180910390f35b6102b16004803603602081101561029b57600080fd5b810190808035906020019092919050505061093b565b604051808573ffffffffffffffffffffffffffffffffffffffff16815260200184815260200183815260200182815260200194505050505060405180910390f35b6102fa61099b565b6040518082815260200191505060405180910390f35b6103186109a1565b604051808273ffffffffffffffffffffffffffffffffffffffff16815260200191505060405180910390f35b61034c6109c7565b604051808273ffffffffffffffffffffffffffffffffffffffff16815260200191505060405180910390f35b6103ae6004803603604081101561038e57600080fd5b8101908080359060200190929190803590602001909291905050506109ed565b005b6103f2600480360360608110156103c657600080fd5b810190808035906020019092919080359060200190929190803515159060200190929190505050610e16565b005b6103fc610f47565b6040518082815260200191505060405180910390f35b61043e6004803603602081101561042857600080fd5b8101908080359060200190929190505050610f4d565b60405180821515815260200191505060405180910390f35b6104826004803603602081101561046c57600080fd5b8101908080359060200190929190505050611488565b005b61048c611644565b005b610496611672565b005b6104f0600480360360608110156104ae57600080fd5b8101908080359060200190929190803573ffffffffffffffffffffffffffffffffffffffff1690602001909291908035151590602001909291905050506117df565b005b6104fa611abf565b6040518082815260200191505060405180910390f35b610518611ac4565b604051808273ffffffffffffffffffffffffffffffffffffffff16815260200191505060405180910390f35b61057a6004803603604081101561055a57600080fd5b810190808035906020019092919080359060200190929190505050611aed565b6040518082815260200191505060405180910390f35b6105dc600480360360408110156105a657600080fd5b8101908080359060200190929190803573ffffffffffffffffffffffffffffffffffffffff169060200190929190505050611b1d565b604051808381526020018281526020019250505060405180910390f35b610601611b4e565b604051808273ffffffffffffffffffffffffffffffffffffffff16815260200191505060405180910390f35b61066f6004803603602081101561064357600080fd5b81019080803573ffffffffffffffffffffffffffffffffffffffff169060200190929190505050611b74565b60405180821515815260200191505060405180910390f35b6106d36004803603604081101561069d57600080fd5b8101908080359060200190929190803573ffffffffffffffffffffffffffffffffffffffff169060200190929190505050611b94565b6040518082815260200191505060405180910390f35b61072b600480360360208110156106ff57600080fd5b81019080803573ffffffffffffffffffffffffffffffffffffffff169060200190929190505050611dda565b005b61076f6004803603602081101561074357600080fd5b81019080803573ffffffffffffffffffffffffffffffffffffffff169060200190929190505050611f3b565b005b6107a76004803603604081101561078757600080fd5b81019080803590602001909291908035906020019092919050505061209c565b005b6107eb600480360360208110156107bf57600080fd5b81019080803573ffffffffffffffffffffffffffffffffffffffff16906020019092919050505061244d565b005b600760009054906101000a900473ffffffffffffffffffffffffffffffffffffffff1681565b6000600480549050905090565b600b5481565b61082e61263f565b73ffffffffffffffffffffffffffffffffffffffff1661084c611ac4565b73ffffffffffffffffffffffffffffffffffffffff16146108d5576040517f08c379a00000000000000000000000000000000000000000000000000000000081526004018080602001828103825260208152602001807f4f776e61626c653a2063616c6c6572206973206e6f7420746865206f776e657281525060200191505060405180910390fd5b6108dd611644565b806008819055503373ffffffffffffffffffffffffffffffffffffffff167fe2492e003bbe8afa53088b406f0c1cb5d9e280370fc72a74cf116ffd343c4053826040518082815260200191505060405180910390a250565b60085481565b6004818154811061094b57600080fd5b90600052602060002090600402016000915090508060000160009054906101000a900473ffffffffffffffffffffffffffffffffffffffff16908060010154908060020154908060030154905084565b60095481565b600360009054906101000a900473ffffffffffffffffffffffffffffffffffffffff1681565b600660009054906101000a900473ffffffffffffffffffffffffffffffffffffffff1681565b60026001541415610a66576040517f08c379a000000000000000000000000000000000000000000000000000000000815260040180806020018281038252601f8152602001807f5265656e7472616e637947756172643a207265656e7472616e742063616c6c0081525060200191505060405180910390fd5b6002600181905550600060048381548110610a7d57fe5b9060005260206000209060040201905060006005600085815260200190815260200160002060003373ffffffffffffffffffffffffffffffffffffffff1673ffffffffffffffffffffffffffffffffffffffff16815260200190815260200160002090508281600001541015610b5b576040517f08c379a00000000000000000000000000000000000000000000000000000000081526004018080602001828103825260128152602001807f77697468647261773a206e6f7420676f6f64000000000000000000000000000081525060200191505060405180910390fd5b6000610b6685610f4d565b9050808015610b79575060008260000154115b15610d07576000610bc88360010154610bba64e8d4a51000610bac8860030154886000015461264790919063ffffffff16565b6126cd90919063ffffffff16565b61275690919063ffffffff16565b90506000811115610d05576000610bfc600a610bee60038561264790919063ffffffff16565b6126cd90919063ffffffff16565b9050610c0833826127d9565b610c46600360009054906101000a900473ffffffffffffffffffffffffffffffffffffffff16610c41838561275690919063ffffffff16565b6127d9565b600360009054906101000a900473ffffffffffffffffffffffffffffffffffffffff1673ffffffffffffffffffffffffffffffffffffffff166317be3fa533610c98848661275690919063ffffffff16565b6040518363ffffffff1660e01b8152600401808373ffffffffffffffffffffffffffffffffffffffff16815260200182815260200192505050600060405180830381600087803b158015610ceb57600080fd5b505af1158015610cff573d6000803e3d6000fd5b50505050505b505b6000841115610d7f57610d2784836000015461275690919063ffffffff16565b8260000181905550610d7e33858560000160009054906101000a900473ffffffffffffffffffffffffffffffffffffffff1673ffffffffffffffffffffffffffffffffffffffff16612aad9092919063ffffffff16565b5b610db164e8d4a51000610da38560030154856000015461264790919063ffffffff16565b6126cd90919063ffffffff16565b8260010181905550843373ffffffffffffffffffffffffffffffffffffffff167ff279e6a1f5e320cca91135676d9cb6e44ca8a08c0b88342bcdb1144f6511b568866040518082815260200191505060405180910390a3505050600180819055505050565b610e1e61263f565b73ffffffffffffffffffffffffffffffffffffffff16610e3c611ac4565b73ffffffffffffffffffffffffffffffffffffffff1614610ec5576040517f08c379a00000000000000000000000000000000000000000000000000000000081526004018080602001828103825260208152602001807f4f776e61626c653a2063616c6c6572206973206e6f7420746865206f776e657281525060200191505060405180910390fd5b8015610ed457610ed3611644565b5b610f1982610f0b60048681548110610ee857fe5b90600052602060002090600402016001015460095461275690919063ffffffff16565b612b4f90919063ffffffff16565b6009819055508160048481548110610f2d57fe5b906000526020600020906004020160010181905550505050565b600a5481565b60008060048381548110610f5d57fe5b9060005260206000209060040201905080600201544311610f82576000915050611483565b600b54816002015410610f99576000915050611483565b60008160000160009054906101000a900473ffffffffffffffffffffffffffffffffffffffff1673ffffffffffffffffffffffffffffffffffffffff166370a08231306040518263ffffffff1660e01b8152600401808273ffffffffffffffffffffffffffffffffffffffff16815260200191505060206040518083038186803b15801561102657600080fd5b505afa15801561103a573d6000803e3d6000fd5b505050506040513d602081101561105057600080fd5b810190808051906020019092919050505090506000811480611076575060008260010154145b1561108f57438260020181905550600092505050611483565b60008060006006600b604692509250925060006110c38660020154600b544310156110ba57436110be565b600b545b611aed565b905060006111066009546110f889600101546110ea6008548761264790919063ffffffff16565b61264790919063ffffffff16565b6126cd90919063ffffffff16565b9050600061115361113285611124888a612b4f90919063ffffffff16565b612b4f90919063ffffffff16565b611145888561264790919063ffffffff16565b6126cd90919063ffffffff16565b905060006111a061117f86611171898b612b4f90919063ffffffff16565b612b4f90919063ffffffff16565b611192888661264790919063ffffffff16565b6126cd90919063ffffffff16565b905060006111c9826111bb858761275690919063ffffffff16565b61275690919063ffffffff16565b9050600260009054906101000a900473ffffffffffffffffffffffffffffffffffffffff1673ffffffffffffffffffffffffffffffffffffffff166340c10f19600660009054906101000a900473ffffffffffffffffffffffffffffffffffffffff16856040518363ffffffff1660e01b8152600401808373ffffffffffffffffffffffffffffffffffffffff16815260200182815260200192505050600060405180830381600087803b15801561128057600080fd5b505af1158015611294573d6000803e3d6000fd5b50505050600260009054906101000a900473ffffffffffffffffffffffffffffffffffffffff1673ffffffffffffffffffffffffffffffffffffffff166340c10f19600760009054906101000a900473ffffffffffffffffffffffffffffffffffffffff16846040518363ffffffff1660e01b8152600401808373ffffffffffffffffffffffffffffffffffffffff16815260200182815260200192505050600060405180830381600087803b15801561134d57600080fd5b505af1158015611361573d6000803e3d6000fd5b50505050600260009054906101000a900473ffffffffffffffffffffffffffffffffffffffff1673ffffffffffffffffffffffffffffffffffffffff166340c10f1930836040518363ffffffff1660e01b8152600401808373ffffffffffffffffffffffffffffffffffffffff16815260200182815260200192505050600060405180830381600087803b1580156113f857600080fd5b505af115801561140c573d6000803e3d6000fd5b5050505061145061143d8a61142f64e8d4a510008561264790919063ffffffff16565b6126cd90919063ffffffff16565b8b60030154612b4f90919063ffffffff16565b8a60030181905550600b54431015611468574361146c565b600b545b8a6002018190555060019a50505050505050505050505b919050565b60026001541415611501576040517f08c379a000000000000000000000000000000000000000000000000000000000815260040180806020018281038252601f8152602001807f5265656e7472616e637947756172643a207265656e7472616e742063616c6c0081525060200191505060405180910390fd5b600260018190555060006004828154811061151857fe5b9060005260206000209060040201905060006005600084815260200190815260200160002060003373ffffffffffffffffffffffffffffffffffffffff1673ffffffffffffffffffffffffffffffffffffffff168152602001908152602001600020905060008160000154905060008260000181905550600082600101819055506115e833828560000160009054906101000a900473ffffffffffffffffffffffffffffffffffffffff1673ffffffffffffffffffffffffffffffffffffffff16612aad9092919063ffffffff16565b833373ffffffffffffffffffffffffffffffffffffffff167fbb757047c2b5f3974fe26b7c10f732e7bce710b0952a71082702781e62ae0595836040518082815260200191505060405180910390a35050506001808190555050565b6000600480549050905060005b8181101561166e5761166281610f4d565b50806001019050611651565b5050565b61167a61263f565b73ffffffffffffffffffffffffffffffffffffffff16611698611ac4565b73ffffffffffffffffffffffffffffffffffffffff1614611721576040517f08c379a00000000000000000000000000000000000000000000000000000000081526004018080602001828103825260208152602001807f4f776e61626c653a2063616c6c6572206973206e6f7420746865206f776e657281525060200191505060405180910390fd5b600073ffffffffffffffffffffffffffffffffffffffff1660008054906101000a900473ffffffffffffffffffffffffffffffffffffffff1673ffffffffffffffffffffffffffffffffffffffff167f8be0079c531659141344cd1fd0a4f28419497f9722a3daafe3b4186f6b6457e060405160405180910390a360008060006101000a81548173ffffffffffffffffffffffffffffffffffffffff021916908373ffffffffffffffffffffffffffffffffffffffff160217905550565b6117e761263f565b73ffffffffffffffffffffffffffffffffffffffff16611805611ac4565b73ffffffffffffffffffffffffffffffffffffffff161461188e576040517f08c379a00000000000000000000000000000000000000000000000000000000081526004018080602001828103825260208152602001807f4f776e61626c653a2063616c6c6572206973206e6f7420746865206f776e657281525060200191505060405180910390fd5b8160001515600c60008373ffffffffffffffffffffffffffffffffffffffff1673ffffffffffffffffffffffffffffffffffffffff16815260200190815260200160002060009054906101000a900460ff16151514611955576040517f08c379a00000000000000000000000000000000000000000000000000000000081526004018080602001828103825260198152602001807f6e6f6e4475706c6963617465643a206475706c6963617465640000000000000081525060200191505060405180910390fd5b811561196457611963611644565b5b6000600a54431161197757600a54611979565b435b905061199085600954612b4f90919063ffffffff16565b6009819055506001600c60008673ffffffffffffffffffffffffffffffffffffffff1673ffffffffffffffffffffffffffffffffffffffff16815260200190815260200160002060006101000a81548160ff021916908315150217905550600460405180608001604052808673ffffffffffffffffffffffffffffffffffffffff1681526020018781526020018381526020016000815250908060018154018082558091505060019003906000526020600020906004020160009091909190915060008201518160000160006101000a81548173ffffffffffffffffffffffffffffffffffffffff021916908373ffffffffffffffffffffffffffffffffffffffff16021790555060208201518160010155604082015181600201556060820151816003015550505050505050565b600181565b60008060009054906101000a900473ffffffffffffffffffffffffffffffffffffffff16905090565b6000611b156001611b07858561275690919063ffffffff16565b61264790919063ffffffff16565b905092915050565b6005602052816000526040600020602052806000526040600020600091509150508060000154908060010154905082565b600260009054906101000a900473ffffffffffffffffffffffffffffffffffffffff1681565b600c6020528060005260406000206000915054906101000a900460ff1681565b60008060048481548110611ba457fe5b9060005260206000209060040201905060006005600086815260200190815260200160002060008573ffffffffffffffffffffffffffffffffffffffff1673ffffffffffffffffffffffffffffffffffffffff168152602001908152602001600020905060008260030154905060008360000160009054906101000a900473ffffffffffffffffffffffffffffffffffffffff1673ffffffffffffffffffffffffffffffffffffffff166370a08231306040518263ffffffff1660e01b8152600401808273ffffffffffffffffffffffffffffffffffffffff16815260200191505060206040518083038186803b158015611c9e57600080fd5b505afa158015611cb2573d6000803e3d6000fd5b505050506040513d6020811015611cc857600080fd5b81019080805190602001909291905050509050836002015443118015611cef575060008114155b15611d8a576000611d04856002015443611aed565b90506000611d47600954611d398860010154611d2b6008548761264790919063ffffffff16565b61264790919063ffffffff16565b6126cd90919063ffffffff16565b9050611d85611d7684611d6864e8d4a510008561264790919063ffffffff16565b6126cd90919063ffffffff16565b85612b4f90919063ffffffff16565b935050505b611dce8360010154611dc064e8d4a51000611db286886000015461264790919063ffffffff16565b6126cd90919063ffffffff16565b61275690919063ffffffff16565b94505050505092915050565b600660009054906101000a900473ffffffffffffffffffffffffffffffffffffffff1673ffffffffffffffffffffffffffffffffffffffff163373ffffffffffffffffffffffffffffffffffffffff1614611e9d576040517f08c379a00000000000000000000000000000000000000000000000000000000081526004018080602001828103825260098152602001807f6465763a207775743f000000000000000000000000000000000000000000000081525060200191505060405180910390fd5b80600660006101000a81548173ffffffffffffffffffffffffffffffffffffffff021916908373ffffffffffffffffffffffffffffffffffffffff1602179055508073ffffffffffffffffffffffffffffffffffffffff163373ffffffffffffffffffffffffffffffffffffffff167f618c54559e94f1499a808aad71ee8729f8e74e8c48e979616328ce493a1a52e760405160405180910390a350565b600760009054906101000a900473ffffffffffffffffffffffffffffffffffffffff1673ffffffffffffffffffffffffffffffffffffffff163373ffffffffffffffffffffffffffffffffffffffff1614611ffe576040517f08c379a00000000000000000000000000000000000000000000000000000000081526004018080602001828103825260188152602001807f736574466565416464726573733a20464f5242494444454e000000000000000081525060200191505060405180910390fd5b80600760006101000a81548173ffffffffffffffffffffffffffffffffffffffff021916908373ffffffffffffffffffffffffffffffffffffffff1602179055508073ffffffffffffffffffffffffffffffffffffffff163373ffffffffffffffffffffffffffffffffffffffff167ffe3c1cbeb303fc6e36f55777dc264c0c66f68bf2c317fd6f7b696cc5878e743960405160405180910390a350565b60026001541415612115576040517f08c379a000000000000000000000000000000000000000000000000000000000815260040180806020018281038252601f8152602001807f5265656e7472616e637947756172643a207265656e7472616e742063616c6c0081525060200191505060405180910390fd5b600260018190555060006004838154811061212c57fe5b9060005260206000209060040201905060006005600085815260200190815260200160002060003373ffffffffffffffffffffffffffffffffffffffff1673ffffffffffffffffffffffffffffffffffffffff1681526020019081526020016000209050600061219b85610f4d565b90508080156121ae575060008260000154115b1561233c5760006121fd83600101546121ef64e8d4a510006121e18860030154886000015461264790919063ffffffff16565b6126cd90919063ffffffff16565b61275690919063ffffffff16565b9050600081111561233a576000612231600a61222360038561264790919063ffffffff16565b6126cd90919063ffffffff16565b905061223d33826127d9565b61227b600360009054906101000a900473ffffffffffffffffffffffffffffffffffffffff16612276838561275690919063ffffffff16565b6127d9565b600360009054906101000a900473ffffffffffffffffffffffffffffffffffffffff1673ffffffffffffffffffffffffffffffffffffffff166317be3fa5336122cd848661275690919063ffffffff16565b6040518363ffffffff1660e01b8152600401808373ffffffffffffffffffffffffffffffffffffffff16815260200182815260200192505050600060405180830381600087803b15801561232057600080fd5b505af1158015612334573d6000803e3d6000fd5b50505050505b505b60008411156123b6576123963330868660000160009054906101000a900473ffffffffffffffffffffffffffffffffffffffff1673ffffffffffffffffffffffffffffffffffffffff16612bd7909392919063ffffffff16565b6123ad848360000154612b4f90919063ffffffff16565b82600001819055505b6123e864e8d4a510006123da8560030154856000015461264790919063ffffffff16565b6126cd90919063ffffffff16565b8260010181905550843373ffffffffffffffffffffffffffffffffffffffff167f90890809c654f11d6e72a28fa60149770a0d11ec6c92319d6ceb2bb0a4ea1a15866040518082815260200191505060405180910390a3505050600180819055505050565b61245561263f565b73ffffffffffffffffffffffffffffffffffffffff16612473611ac4565b73ffffffffffffffffffffffffffffffffffffffff16146124fc576040517f08c379a00000000000000000000000000000000000000000000000000000000081526004018080602001828103825260208152602001807f4f776e61626c653a2063616c6c6572206973206e6f7420746865206f776e657281525060200191505060405180910390fd5b600073ffffffffffffffffffffffffffffffffffffffff168173ffffffffffffffffffffffffffffffffffffffff161415612582576040517f08c379a00000000000000000000000000000000000000000000000000000000081526004018080602001828103825260268152602001806130516026913960400191505060405180910390fd5b8073ffffffffffffffffffffffffffffffffffffffff1660008054906101000a900473ffffffffffffffffffffffffffffffffffffffff1673ffffffffffffffffffffffffffffffffffffffff167f8be0079c531659141344cd1fd0a4f28419497f9722a3daafe3b4186f6b6457e060405160405180910390a3806000806101000a81548173ffffffffffffffffffffffffffffffffffffffff021916908373ffffffffffffffffffffffffffffffffffffffff16021790555050565b600033905090565b60008083141561265a57600090506126c7565b600082840290508284828161266b57fe5b04146126c2576040517f08c379a00000000000000000000000000000000000000000000000000000000081526004018080602001828103825260218152602001806130be6021913960400191505060405180910390fd5b809150505b92915050565b6000808211612744576040517f08c379a000000000000000000000000000000000000000000000000000000000815260040180806020018281038252601a8152602001807f536166654d6174683a206469766973696f6e206279207a65726f00000000000081525060200191505060405180910390fd5b81838161274d57fe5b04905092915050565b6000828211156127ce576040517f08c379a000000000000000000000000000000000000000000000000000000000815260040180806020018281038252601e8152602001807f536166654d6174683a207375627472616374696f6e206f766572666c6f77000081525060200191505060405180910390fd5b818303905092915050565b6000600260009054906101000a900473ffffffffffffffffffffffffffffffffffffffff1673ffffffffffffffffffffffffffffffffffffffff166370a08231306040518263ffffffff1660e01b8152600401808273ffffffffffffffffffffffffffffffffffffffff16815260200191505060206040518083038186803b15801561286457600080fd5b505afa158015612878573d6000803e3d6000fd5b505050506040513d602081101561288e57600080fd5b8101908080519060200190929190505050905060008183111561298057600260009054906101000a900473ffffffffffffffffffffffffffffffffffffffff1673ffffffffffffffffffffffffffffffffffffffff1663a9059cbb85846040518363ffffffff1660e01b8152600401808373ffffffffffffffffffffffffffffffffffffffff16815260200182815260200192505050602060405180830381600087803b15801561293e57600080fd5b505af1158015612952573d6000803e3d6000fd5b505050506040513d602081101561296857600080fd5b81019080805190602001909291905050509050612a51565b600260009054906101000a900473ffffffffffffffffffffffffffffffffffffffff1673ffffffffffffffffffffffffffffffffffffffff1663a9059cbb85856040518363ffffffff1660e01b8152600401808373ffffffffffffffffffffffffffffffffffffffff16815260200182815260200192505050602060405180830381600087803b158015612a1357600080fd5b505af1158015612a27573d6000803e3d6000fd5b505050506040513d6020811015612a3d57600080fd5b810190808051906020019092919050505090505b80612aa7576040517f08c379a00000000000000000000000000000000000000000000000000000000081526004018080602001828103825260218152602001806130776021913960400191505060405180910390fd5b50505050565b612b4a8363a9059cbb60e01b8484604051602401808373ffffffffffffffffffffffffffffffffffffffff16815260200182815260200192505050604051602081830303815290604052907bffffffffffffffffffffffffffffffffffffffffffffffffffffffff19166020820180517bffffffffffffffffffffffffffffffffffffffffffffffffffffffff8381831617835250505050612c98565b505050565b600080828401905083811015612bcd576040517f08c379a000000000000000000000000000000000000000000000000000000000815260040180806020018281038252601b8152602001807f536166654d6174683a206164646974696f6e206f766572666c6f77000000000081525060200191505060405180910390fd5b8091505092915050565b612c92846323b872dd60e01b858585604051602401808473ffffffffffffffffffffffffffffffffffffffff1681526020018373ffffffffffffffffffffffffffffffffffffffff1681526020018281526020019350505050604051602081830303815290604052907bffffffffffffffffffffffffffffffffffffffffffffffffffffffff19166020820180517bffffffffffffffffffffffffffffffffffffffffffffffffffffffff8381831617835250505050612c98565b50505050565b6000612cfa826040518060400160405280602081526020017f5361666542455032303a206c6f772d6c6576656c2063616c6c206661696c65648152508573ffffffffffffffffffffffffffffffffffffffff16612d879092919063ffffffff16565b9050600081511115612d8257808060200190516020811015612d1b57600080fd5b8101908080519060200190929190505050612d81576040517f08c379a000000000000000000000000000000000000000000000000000000000815260040180806020018281038252602a815260200180613027602a913960400191505060405180910390fd5b5b505050565b6060612d968484600085612d9f565b90509392505050565b606082471015612dfa576040517f08c379a00000000000000000000000000000000000000000000000000000000081526004018080602001828103825260268152602001806130986026913960400191505060405180910390fd5b612e0385612f47565b612e75576040517f08c379a000000000000000000000000000000000000000000000000000000000815260040180806020018281038252601d8152602001807f416464726573733a2063616c6c20746f206e6f6e2d636f6e747261637400000081525060200191505060405180910390fd5b6000808673ffffffffffffffffffffffffffffffffffffffff1685876040518082805190602001908083835b60208310612ec45780518252602082019150602081019050602083039250612ea1565b6001836020036101000a03801982511681845116808217855250505050505090500191505060006040518083038185875af1925050503d8060008114612f26576040519150601f19603f3d011682016040523d82523d6000602084013e612f2b565b606091505b5091509150612f3b828286612f5a565b92505050949350505050565b600080823b905060008111915050919050565b60608315612f6a5782905061301f565b600083511115612f7d5782518084602001fd5b816040517f08c379a00000000000000000000000000000000000000000000000000000000081526004018080602001828103825283818151815260200191508051906020019080838360005b83811015612fe4578082015181840152602081019050612fc9565b50505050905090810190601f1680156130115780820380516001836020036101000a031916815260200191505b509250505060405180910390fd5b939250505056fe5361666542455032303a204245503230206f7065726174696f6e20646964206e6f7420737563636565644f776e61626c653a206e6577206f776e657220697320746865207a65726f2061646472657373736166654d6172735472616e736665723a207472616e73666572206661696c6564416464726573733a20696e73756666696369656e742062616c616e636520666f722063616c6c536166654d6174683a206d756c7469706c69636174696f6e206f766572666c6f77a264697066735822122047f7395efbb76a0ce5934bf5f2998a01e79c41b43eb993128f2996dfec2e972864736f6c63430007060033",
  "immutableReferences": {},
  "source": "// SPDX-License-Identifier: MIT\r\n\r\npragma solidity ^0.7.6;\r\n\r\nimport {SafeMath} from \"@openzeppelin/contracts/math/SafeMath.sol\";\r\nimport {Ownable} from \"@openzeppelin/contracts/access/Ownable.sol\";\r\nimport {ReentrancyGuard} from \"@openzeppelin/contracts/utils/ReentrancyGuard.sol\";\r\n\r\nimport {IBEP20} from \"./libs/SafeBEP20.sol\";\r\nimport {SafeBEP20} from \"./libs/SafeBEP20.sol\";\r\nimport {MarsToken} from \"./MarsToken.sol\";\r\nimport {LockedTokenVault} from \"./LockedTokenVault.sol\";\r\n\r\n// MasterChef is the master of Mars. He can make Mars and he is a fair guy.\r\n//\r\n// Note that it's ownable and the owner wields tremendous power. The ownership\r\n// will be transferred to a governance smart contract once Mars is sufficiently\r\n// distributed and the community can show to govern itself.\r\n//\r\n// Have fun reading it. Hopefully it's bug-free. God bless.\r\ncontract MasterChef is Ownable, ReentrancyGuard {\r\n    using SafeMath for uint256;\r\n    using SafeBEP20 for IBEP20;\r\n\r\n    // Info of each user.\r\n    struct UserInfo {\r\n        uint256 amount;         // How many LP tokens the user has provided.\r\n        uint256 rewardDebt;     // Reward debt. See explanation below.\r\n        //\r\n        // We do some fancy math here. Basically, any point in time, the amount of Mars\r\n        // entitled to a user but is pending to be distributed is:\r\n        //\r\n        //   pending reward = (user.amount * pool.accMarsPerShare) - user.rewardDebt\r\n        //\r\n        // Whenever a user deposits or withdraws LP tokens to a pool. Here's what happens:\r\n        //   1. The pool's `accMarsPerShare` (and `lastRewardBlock`) gets updated.\r\n        //   2. User receives the pending reward sent to his/her address.\r\n        //   3. User's `amount` gets updated.\r\n        //   4. User's `rewardDebt` gets updated.\r\n    }\r\n\r\n    // Info of each pool.\r\n    struct PoolInfo {\r\n        IBEP20 lpToken;           // Address of LP token contract.\r\n        uint256 allocPoint;       // How many allocation points assigned to this pool. Mars to distribute per block.\r\n        uint256 lastRewardBlock;  // Last block number that Mars distribution occurs.\r\n        uint256 accMarsPerShare;   // Accumulated Mars per share, times 1e12. See below.\r\n    }\r\n\r\n    // The Mars TOKEN!\r\n    MarsToken public mars;\r\n    // The Locked Mars TOKEN!\r\n    LockedTokenVault public lockedTokenVault;\r\n    // Info of each pool.\r\n    PoolInfo[] public poolInfo;\r\n    // Info of each user that stakes LP tokens.\r\n    mapping(uint256 => mapping(address => UserInfo)) public userInfo;\r\n    \r\n    // Dev address.\r\n    address public devAddress;\r\n    // Project treasory Fee address\r\n    address public pjtrAddress;\r\n\r\n    // Mars tokens created per block.\r\n    uint256 public marsPerBlock;\r\n    // Bonus muliplier for early Mars makers.\r\n    uint256 public constant BONUS_MULTIPLIER = 1;\r\n    // Total allocation points. Must be the sum of all allocation points in all pools.\r\n    uint256 public totalAllocPoint = 0;\r\n    // The block number when Mars mining starts.\r\n    uint256 public startBlock;\r\n    // The block number when Mars mining ends.\r\n    uint256 public endBlock;\r\n\r\n    event Deposit(address indexed user, uint256 indexed pid, uint256 amount);\r\n    event Withdraw(address indexed user, uint256 indexed pid, uint256 amount);\r\n    event EmergencyWithdraw(address indexed user, uint256 indexed pid, uint256 amount);\r\n    event SetPjtrAddress(address indexed user, address indexed newAddress);\r\n    event SetDevAddress(address indexed user, address indexed newAddress);\r\n    event UpdateEmissionRate(address indexed user, uint256 goosePerBlock);\r\n\r\n    constructor(\r\n        MarsToken _mars,\r\n        LockedTokenVault _lockedTokenVault,\r\n        address _devAddress,\r\n        address _pjtrAddress,\r\n        uint256 _marsPerBlock,\r\n        uint256 _startBlock,\r\n        uint256 _endBlock\r\n    ) public {\r\n        mars = _mars;\r\n        lockedTokenVault = _lockedTokenVault;\r\n        devAddress = _devAddress;\r\n        pjtrAddress = _pjtrAddress;\r\n        marsPerBlock = _marsPerBlock;\r\n        startBlock = _startBlock;\r\n        endBlock = _endBlock;\r\n    }\r\n\r\n    function poolLength() external view returns (uint256) {\r\n        return poolInfo.length;\r\n    }\r\n\r\n    mapping(IBEP20 => bool) public poolExistence;\r\n    modifier nonDuplicated(IBEP20 _lpToken) {\r\n        require(poolExistence[_lpToken] == false, \"nonDuplicated: duplicated\");\r\n        _;\r\n    }\r\n\r\n    // Add a new lp to the pool. Can only be called by the owner.\r\n    function addPool(uint256 _allocPoint, IBEP20 _lpToken, bool _withUpdate) public onlyOwner nonDuplicated(_lpToken) {\r\n        if (_withUpdate) {\r\n            massUpdatePools();\r\n        }\r\n        uint256 lastRewardBlock = block.number > startBlock ? block.number : startBlock;\r\n        totalAllocPoint = totalAllocPoint.add(_allocPoint);\r\n        poolExistence[_lpToken] = true;\r\n        poolInfo.push(PoolInfo({\r\n        lpToken : _lpToken,\r\n        allocPoint : _allocPoint,\r\n        lastRewardBlock : lastRewardBlock,\r\n        accMarsPerShare : 0\r\n        }));\r\n    }\r\n\r\n    // Update the given pool's Mars allocation point and deposit fee. Can only be called by the owner.\r\n    function setPool(uint256 _pid, uint256 _allocPoint, bool _withUpdate) public onlyOwner {\r\n        if (_withUpdate) {\r\n            massUpdatePools();\r\n        }\r\n        totalAllocPoint = totalAllocPoint.sub(poolInfo[_pid].allocPoint).add(_allocPoint);\r\n        poolInfo[_pid].allocPoint = _allocPoint;\r\n    }\r\n\r\n    // Return reward multiplier over the given _from to _to block.\r\n    function getMultiplier(uint256 _from, uint256 _to) public pure returns (uint256) {\r\n        return _to.sub(_from).mul(BONUS_MULTIPLIER);\r\n    }\r\n\r\n    // View function to see pending Mars on frontend.\r\n    function pendingMars(uint256 _pid, address _user) external view returns (uint256) {\r\n        PoolInfo storage pool = poolInfo[_pid];\r\n        UserInfo storage user = userInfo[_pid][_user];\r\n        uint256 accMarsPerShare = pool.accMarsPerShare;\r\n        uint256 lpSupply = pool.lpToken.balanceOf(address(this));\r\n        if (block.number > pool.lastRewardBlock && lpSupply != 0) {\r\n            uint256 multiplier = getMultiplier(pool.lastRewardBlock, block.number);\r\n            uint256 marsReward = multiplier.mul(marsPerBlock).mul(pool.allocPoint).div(totalAllocPoint);\r\n            accMarsPerShare = accMarsPerShare.add(marsReward.mul(1e12).div(lpSupply));\r\n        }\r\n        return user.amount.mul(accMarsPerShare).div(1e12).sub(user.rewardDebt);\r\n    }\r\n\r\n    // Update reward variables for all pools. Be careful of gas spending!\r\n    function massUpdatePools() public {\r\n        uint256 length = poolInfo.length;\r\n        for (uint256 pid = 0; pid < length; ++pid) {\r\n            updatePool(pid);\r\n        }\r\n    }\r\n\r\n    // Update reward variables of the given pool to be up-to-date.\r\n    function updatePool(uint256 _pid) public returns (bool) {\r\n        PoolInfo storage pool = poolInfo[_pid];\r\n        if (block.number <= pool.lastRewardBlock) {\r\n            return false;\r\n        }\r\n        if (pool.lastRewardBlock >= endBlock) {\r\n            return false;\r\n        }\r\n        uint256 lpSupply = pool.lpToken.balanceOf(address(this));\r\n        if (lpSupply == 0 || pool.allocPoint == 0) {\r\n            pool.lastRewardBlock = block.number;\r\n            return false;\r\n        }\r\n        (uint256 accDev, uint256 accPjtr, uint256 accShare) = (6, 11, 70);\r\n        uint256 multiplier = getMultiplier(pool.lastRewardBlock, block.number >= endBlock ? endBlock : block.number);\r\n        uint256 marsReward = multiplier.mul(marsPerBlock).mul(pool.allocPoint).div(totalAllocPoint);\r\n        uint256 devFee = marsReward.mul(accDev).div(accDev.add(accPjtr).add(accShare));\r\n        uint256 pjtrFee = marsReward.mul(accPjtr).div(accDev.add(accPjtr).add(accShare));\r\n        uint256 shareReward = marsReward.sub(devFee).sub(pjtrFee);\r\n        mars.mint(devAddress, devFee);\r\n        mars.mint(pjtrAddress, pjtrFee);\r\n        mars.mint(address(this), shareReward);\r\n        pool.accMarsPerShare = pool.accMarsPerShare.add(shareReward.mul(1e12).div(lpSupply));\r\n        pool.lastRewardBlock = block.number >= endBlock ? endBlock : block.number;\r\n        return true;\r\n    }\r\n\r\n    // Deposit LP tokens to MasterChef for Mars allocation.\r\n    function deposit(uint256 _pid, uint256 _amount) public nonReentrant {\r\n        PoolInfo storage pool = poolInfo[_pid];\r\n        UserInfo storage user = userInfo[_pid][msg.sender];\r\n        bool minted = updatePool(_pid);\r\n        if (minted && user.amount > 0) {\r\n            uint256 pending = user.amount.mul(pool.accMarsPerShare).div(1e12).sub(user.rewardDebt);\r\n            if (pending > 0) {\r\n                uint256 pending30Percent = pending.mul(3).div(10);\r\n                safeMarsTransfer(msg.sender, pending30Percent);\r\n                safeMarsTransfer(address(lockedTokenVault), pending.sub(pending30Percent));\r\n                lockedTokenVault.lockToken(address(msg.sender), pending.sub(pending30Percent));\r\n            }\r\n        }\r\n        if (_amount > 0) {\r\n            pool.lpToken.safeTransferFrom(address(msg.sender), address(this), _amount);\r\n            user.amount = user.amount.add(_amount);\r\n        }\r\n        user.rewardDebt = user.amount.mul(pool.accMarsPerShare).div(1e12);\r\n        emit Deposit(msg.sender, _pid, _amount);\r\n    }\r\n\r\n    // Withdraw LP tokens from MasterChef.\r\n    function withdraw(uint256 _pid, uint256 _amount) public nonReentrant {\r\n        PoolInfo storage pool = poolInfo[_pid];\r\n        UserInfo storage user = userInfo[_pid][msg.sender];\r\n        require(user.amount >= _amount, \"withdraw: not good\");\r\n        bool minted = updatePool(_pid);\r\n        if (minted && user.amount > 0) {\r\n            uint256 pending = user.amount.mul(pool.accMarsPerShare).div(1e12).sub(user.rewardDebt);\r\n            if (pending > 0) {\r\n                uint256 pending30Percent = pending.mul(3).div(10);\r\n                safeMarsTransfer(msg.sender, pending30Percent);\r\n                safeMarsTransfer(address(lockedTokenVault), pending.sub(pending30Percent));\r\n                lockedTokenVault.lockToken(address(msg.sender), pending.sub(pending30Percent));\r\n            }\r\n        }\r\n        if (_amount > 0) {\r\n            user.amount = user.amount.sub(_amount);\r\n            pool.lpToken.safeTransfer(address(msg.sender), _amount);\r\n        }\r\n        user.rewardDebt = user.amount.mul(pool.accMarsPerShare).div(1e12);\r\n        emit Withdraw(msg.sender, _pid, _amount);\r\n    }\r\n\r\n    // Withdraw without caring about rewards. EMERGENCY ONLY.\r\n    function emergencyWithdraw(uint256 _pid) public nonReentrant {\r\n        PoolInfo storage pool = poolInfo[_pid];\r\n        UserInfo storage user = userInfo[_pid][msg.sender];\r\n        uint256 amount = user.amount;\r\n        user.amount = 0;\r\n        user.rewardDebt = 0;\r\n        pool.lpToken.safeTransfer(address(msg.sender), amount);\r\n        emit EmergencyWithdraw(msg.sender, _pid, amount);\r\n    }\r\n\r\n    // Safe Mars transfer function, just in case if rounding error causes pool to not have enough Mars.\r\n    function safeMarsTransfer(address _to, uint256 _amount) internal {\r\n        uint256 marsBal = mars.balanceOf(address(this));\r\n        bool transferSuccess = false;\r\n        if (_amount > marsBal) {\r\n            transferSuccess = mars.transfer(_to, marsBal);\r\n        } else {\r\n            transferSuccess = mars.transfer(_to, _amount);\r\n        }\r\n        require(transferSuccess, \"safeMarsTransfer: transfer failed\");\r\n    }\r\n\r\n    // Update dev address by the previous dev.\r\n    function setDevAddress(address _devAddress) public {\r\n        require(msg.sender == devAddress, \"dev: wut?\");\r\n        devAddress = _devAddress;\r\n        emit SetDevAddress(msg.sender, _devAddress);\r\n    }\r\n\r\n    function setPjtrAddress(address _pjtrAddress) public {\r\n        require(msg.sender == pjtrAddress, \"setFeeAddress: FORBIDDEN\");\r\n        pjtrAddress = _pjtrAddress;\r\n        emit SetPjtrAddress(msg.sender, _pjtrAddress);\r\n    }\r\n\r\n    //Pancake has to add hidden dummy pools inorder to alter the emission, here we make it simple and transparent to all.\r\n    function updateEmissionRate(uint256 _marsPerBlock) public onlyOwner {\r\n        massUpdatePools();\r\n        marsPerBlock = _marsPerBlock;\r\n        emit UpdateEmissionRate(msg.sender, _marsPerBlock);\r\n    }\r\n}",
  "sourcePath": "E:/remix-data/Mars/contracts/MasterChef.sol",
  "compiler": {
    "name": "solc",
    "version": "0.7.6+commit.7338295f.Emscripten.clang"
  },
  "schemaVersion": "3.3.4",
  "updatedAt": "2021-03-13T06:16:04.424Z",
  "devdoc": {
    "kind": "dev",
    "methods": {
      "owner()": {
        "details": "Returns the address of the current owner."
      },
      "renounceOwnership()": {
        "details": "Leaves the contract without owner. It will not be possible to call `onlyOwner` functions anymore. Can only be called by the current owner. NOTE: Renouncing ownership will leave the contract without an owner, thereby removing any functionality that is only available to the owner."
      },
      "transferOwnership(address)": {
        "details": "Transfers ownership of the contract to a new account (`newOwner`). Can only be called by the current owner."
      }
    },
    "version": 1
  },
  "userdoc": {
    "kind": "user",
    "methods": {},
    "version": 1
  }
}